{
  "_format": "hh-sol-artifact-1",
  "contractName": "CardContract",
  "sourceName": "contracts/CardContract.sol",
  "abi": [
    {
      "inputs": [],
      "stateMutability": "nonpayable",
      "type": "constructor"
    },
    {
      "inputs": [],
      "name": "cardCount",
      "outputs": [
        {
          "internalType": "uint256",
          "name": "",
          "type": "uint256"
        }
      ],
      "stateMutability": "view",
      "type": "function"
    },
    {
      "inputs": [
        {
          "internalType": "uint256",
          "name": "",
          "type": "uint256"
        }
      ],
      "name": "cards",
      "outputs": [
        {
          "internalType": "uint256",
          "name": "id",
          "type": "uint256"
        },
        {
          "internalType": "string",
          "name": "content",
          "type": "string"
        }
      ],
      "stateMutability": "view",
      "type": "function"
    },
    {
      "inputs": [
        {
          "internalType": "string",
          "name": "_content",
          "type": "string"
        }
      ],
      "name": "createCard",
      "outputs": [],
      "stateMutability": "nonpayable",
      "type": "function"
    },
    {
      "inputs": [
        {
          "internalType": "uint256",
          "name": "_cardNumber",
          "type": "uint256"
        }
      ],
      "name": "getCard",
      "outputs": [
        {
          "internalType": "uint256",
          "name": "id",
          "type": "uint256"
        },
        {
          "internalType": "string",
          "name": "content",
          "type": "string"
        }
      ],
      "stateMutability": "view",
      "type": "function"
    },
    {
      "inputs": [],
      "name": "owner",
      "outputs": [
        {
          "internalType": "address",
          "name": "",
          "type": "address"
        }
      ],
      "stateMutability": "view",
      "type": "function"
    }
  ],
  "bytecode": "0x608060405234801561001057600080fd5b50336000806101000a81548173ffffffffffffffffffffffffffffffffffffffff021916908373ffffffffffffffffffffffffffffffffffffffff1602179055506000600181905550610aa3806100686000396000f3fe608060405234801561001057600080fd5b50600436106100575760003560e01c80631b6cde101461005c57806346a672bd1461007a5780638da5cb5b146100965780638dc10768146100b45780639188d312146100e5575b600080fd5b610064610116565b604051610071919061038a565b60405180910390f35b610094600480360381019061008f91906104ff565b61011c565b005b61009e610186565b6040516100ab9190610589565b60405180910390f35b6100ce60048036038101906100c991906105d0565b6101aa565b6040516100dc92919061067c565b60405180910390f35b6100ff60048036038101906100fa91906105d0565b610256565b60405161010d92919061067c565b60405180910390f35b60015481565b6001600081548092919061012f906106db565b9190505550604051806040016040528060015481526020018281525060026000600154815260200190815260200160002060008201518160000155602082015181600101908161017f919061092f565b5090505050565b60008054906101000a900473ffffffffffffffffffffffffffffffffffffffff1681565b60026020528060005260406000206000915090508060000154908060010180546101d390610752565b80601f01602080910402602001604051908101604052809291908181526020018280546101ff90610752565b801561024c5780601f106102215761010080835404028352916020019161024c565b820191906000526020600020905b81548152906001019060200180831161022f57829003601f168201915b5050505050905082565b6000606060015483111561029f576040517f08c379a000000000000000000000000000000000000000000000000000000000815260040161029690610a4d565b60405180910390fd5b600060026000858152602001908152602001600020604051806040016040529081600082015481526020016001820180546102d990610752565b80601f016020809104026020016040519081016040528092919081815260200182805461030590610752565b80156103525780601f1061032757610100808354040283529160200191610352565b820191906000526020600020905b81548152906001019060200180831161033557829003601f168201915b5050505050815250509050806000015181602001519250925050915091565b6000819050919050565b61038481610371565b82525050565b600060208201905061039f600083018461037b565b92915050565b6000604051905090565b600080fd5b600080fd5b600080fd5b600080fd5b6000601f19601f8301169050919050565b7f4e487b7100000000000000000000000000000000000000000000000000000000600052604160045260246000fd5b61040c826103c3565b810181811067ffffffffffffffff8211171561042b5761042a6103d4565b5b80604052505050565b600061043e6103a5565b905061044a8282610403565b919050565b600067ffffffffffffffff82111561046a576104696103d4565b5b610473826103c3565b9050602081019050919050565b82818337600083830152505050565b60006104a261049d8461044f565b610434565b9050828152602081018484840111156104be576104bd6103be565b5b6104c9848285610480565b509392505050565b600082601f8301126104e6576104e56103b9565b5b81356104f684826020860161048f565b91505092915050565b600060208284031215610515576105146103af565b5b600082013567ffffffffffffffff811115610533576105326103b4565b5b61053f848285016104d1565b91505092915050565b600073ffffffffffffffffffffffffffffffffffffffff82169050919050565b600061057382610548565b9050919050565b61058381610568565b82525050565b600060208201905061059e600083018461057a565b92915050565b6105ad81610371565b81146105b857600080fd5b50565b6000813590506105ca816105a4565b92915050565b6000602082840312156105e6576105e56103af565b5b60006105f4848285016105bb565b91505092915050565b600081519050919050565b600082825260208201905092915050565b60005b8381101561063757808201518184015260208101905061061c565b60008484015250505050565b600061064e826105fd565b6106588185610608565b9350610668818560208601610619565b610671816103c3565b840191505092915050565b6000604082019050610691600083018561037b565b81810360208301526106a38184610643565b90509392505050565b7f4e487b7100000000000000000000000000000000000000000000000000000000600052601160045260246000fd5b60006106e682610371565b91507fffffffffffffffffffffffffffffffffffffffffffffffffffffffffffffffff8203610718576107176106ac565b5b600182019050919050565b7f4e487b7100000000000000000000000000000000000000000000000000000000600052602260045260246000fd5b6000600282049050600182168061076a57607f821691505b60208210810361077d5761077c610723565b5b50919050565b60008190508160005260206000209050919050565b60006020601f8301049050919050565b600082821b905092915050565b6000600883026107e57fffffffffffffffffffffffffffffffffffffffffffffffffffffffffffffffff826107a8565b6107ef86836107a8565b95508019841693508086168417925050509392505050565b6000819050919050565b600061082c61082761082284610371565b610807565b610371565b9050919050565b6000819050919050565b61084683610811565b61085a61085282610833565b8484546107b5565b825550505050565b600090565b61086f610862565b61087a81848461083d565b505050565b5b8181101561089e57610893600082610867565b600181019050610880565b5050565b601f8211156108e3576108b481610783565b6108bd84610798565b810160208510156108cc578190505b6108e06108d885610798565b83018261087f565b50505b505050565b600082821c905092915050565b6000610906600019846008026108e8565b1980831691505092915050565b600061091f83836108f5565b9150826002028217905092915050565b610938826105fd565b67ffffffffffffffff811115610951576109506103d4565b5b61095b8254610752565b6109668282856108a2565b600060209050601f8311600181146109995760008415610987578287015190505b6109918582610913565b8655506109f9565b601f1984166109a786610783565b60005b828110156109cf578489015182556001820191506020850194506020810190506109aa565b868310156109ec57848901516109e8601f8916826108f5565b8355505b6001600288020188555050505b505050505050565b7f496e76616c69642063617264206e756d6265722e000000000000000000000000600082015250565b6000610a37601483610608565b9150610a4282610a01565b602082019050919050565b60006020820190508181036000830152610a6681610a2a565b905091905056fea26469706673582212206562a470772144db99148f1692f6d897da2be5da278383a6a1d5a5f83c89265264736f6c63430008140033",
  "linkReferences": {},
  "deployedLinkReferences": {}
}